{"address":"0x8ca5a5931c9998a90120476f59B0Ce6d8877bfc5","bytecode":"0x60806040523480156200001157600080fd5b5060405162003260380380620032608339810160408190526200003491620000ce565b60016002556003805460ff191690556200004e3362000074565b600080546001600160a01b0319166001600160a01b039290921691909117905562000100565b600380546001600160a01b03838116610100818102610100600160a81b031985161790945560405193909204169182907f8be0079c531659141344cd1fd0a4f28419497f9722a3daafe3b4186f6b6457e090600090a35050565b600060208284031215620000e157600080fd5b81516001600160a01b0381168114620000f957600080fd5b9392505050565b61315080620001106000396000f3fe6080604052600436106100ed5760003560e01c80638456cb59116100855780638456cb59146102515780638da5cb5b146102665780639146a775146102915780639e3e493e146102be578063aa0690f8146102de578063e02cab18146102fe578063e37bd0a11461031e578063e3f1b42e1461033e578063f2fde38b1461035e57600080fd5b8063126e704e146100f95780633294a44f1461011b578063361472c3146101305780633bf479ff146101505780633f4ba83a146101b6578063523e99ae146101cb5780635c975abb146101f9578063715018a61461021c578063789771681461023157600080fd5b366100f457005b600080fd5b34801561010557600080fd5b50610119610114366004612777565b61037e565b005b34801561012757600080fd5b5061011961057e565b34801561013c57600080fd5b5061011961014b3660046128e8565b61064b565b34801561015c57600080fd5b5061019161016b3660046129df565b6001602052600090815260409020546001600160801b0380821691600160801b90041682565b604080516001600160801b039384168152929091166020830152015b60405180910390f35b3480156101c257600080fd5b50610119610f77565b3480156101d757600080fd5b506101eb6101e63660046129df565b610f89565b6040519081526020016101ad565b34801561020557600080fd5b5060035460ff1660405190151581526020016101ad565b34801561022857600080fd5b50610119610fb9565b34801561023d57600080fd5b506101eb61024c3660046129df565b611014565b34801561025d57600080fd5b5061011961104b565b34801561027257600080fd5b5060035461010090046001600160a01b03166040516101ad91906129fa565b34801561029d57600080fd5b506102b16102ac3660046129df565b61105b565b6040516101ad9190612a0e565b3480156102ca57600080fd5b506101196102d9366004612a72565b611174565b3480156102ea57600080fd5b506101196102f9366004612abc565b611528565b34801561030a57600080fd5b50610119610319366004612aef565b6116c4565b34801561032a57600080fd5b50610119610339366004612b29565b6118b3565b34801561034a57600080fd5b506101eb610359366004612b5b565b6119ab565b34801561036a57600080fd5b506101196103793660046129df565b611a05565b610386611a7e565b61038f33611ac4565b6001600160a01b038116158015906103b157506001600160a01b038116600114155b80156103c657506001600160a01b0381163014155b6103eb5760405162461bcd60e51b81526004016103e290612ba8565b60405180910390fd5b3360009081526001602081815260408084206001600160a01b03868116865293019091529091205416156104315760405162461bcd60e51b81526004016103e290612bc7565b6001600160a01b0382161580159061045357506001600160a01b038216600114155b61046f5760405162461bcd60e51b81526004016103e290612ba8565b3360009081526001602081815260408084206001600160a01b0388811686529301909152909120548116908316146104b95760405162461bcd60e51b81526004016103e290612be6565b3360008181526001602081815260408084206001600160a01b03888116808752919094018352818520805488861680885284882080549288166001600160a01b0319938416179055958b1687528387208054821690961790955594819052845490931690935582519182528101929092527f21108c84990d72cc717433752110f9dc2c776eabbd861cca48434c44ad42e9a9910160405180910390a16040516001600160a01b0382169033906000805160206130fb83398151915290600090a3505050565b61058733611ac4565b33600090815260016020818152604080842083855290920190529020546001600160a01b03165b6001600160a01b0381166001146105fb573360009081526001602081815260408084206001600160a01b0395861685529092019052902080546001600160a01b03198116909155166105ae565b3360009081526001602052604081208181559061061b60028301826126dd565b505060405133907ffad79252f2a35a653f254aabf7b02e141c2ba535f23ae9e18add88e96d11597290600090a250565b610653611b02565b61065b611a7e565b6001600160a01b038a166000908152600160205260409020546001600160801b03166106995760405162461bcd60e51b81526004016103e290612c05565b8584146106b85760405162461bcd60e51b81526004016103e290612c24565b805182146106d85760405162461bcd60e51b81526004016103e290612c24565b6107218a88888080602002602001604051908101604052809392919081815260200183836020028082843760009201919091525061071c92508991508a9050612c43565b611b5a565b60005b82811015610788576107768b85858481811061074257610742612d0d565b905060200201602081019061075791906129df565b84848151811061076957610769612d0d565b6020026020010151611c55565b8061078081612d39565b915050610724565b506000826001600160401b038111156107a3576107a36127fe565b6040519080825280602002602001820160405280156107cc578160200160208202803683370190505b50905060005b838110156109095760008585838181106107ee576107ee612d0d565b905060200201602081019061080391906129df565b6001600160a01b03161415610836574782828151811061082557610825612d0d565b6020026020010181815250506108f7565b84848281811061084857610848612d0d565b905060200201602081019061085d91906129df565b6001600160a01b03166370a08231306040518263ffffffff1660e01b815260040161088891906129fa565b60206040518083038186803b1580156108a057600080fd5b505afa1580156108b4573d6000803e3d6000fd5b505050506040513d601f19601f820116820180604052508101906108d89190612d54565b8282815181106108ea576108ea612d0d565b6020026020010181815250505b8061090181612d39565b9150506107d2565b5060005b89811015610df25760006109f48c8c8481811061092c5761092c612d0d565b905060200281019061093e9190612d6d565b61094c9060208101906129df565b8d8d8581811061095e5761095e612d0d565b90506020028101906109709190612d6d565b6109819060408101906020016129df565b8e8e8681811061099357610993612d0d565b90506020028101906109a59190612d6d565b6109b6906060810190604001612b29565b6001600160801b03168f8f878181106109d1576109d1612d0d565b90506020028101906109e39190612d6d565b610359906080810190606001612d8d565b90506000805b8a811015610adb57610ab88e8e86818110610a1757610a17612d0d565b9050602002810190610a299190612d6d565b610a37906080810190612da8565b83818110610a4757610a47612d0d565b9050602002810190610a599190612da8565b80806020026020016040519081016040528093929190818152602001838360200280828437600081840152601f19601f820116905080830192505050505050508d8d84818110610aab57610aab612d0d565b9050602002013585611cd4565b15610ac957610ac682612d39565b91505b80610ad381612d39565b9150506109fa565b506001600160a01b038e16600090815260016020526040902054600160801b90046001600160801b03168110801590610b7b57506001600160a01b038e166000908152600160205260409020600201541580610b7b5750610b798e8e8e86818110610b4857610b48612d0d565b9050602002810190610b5a9190612d6d565b610b6b906080810190606001612d8d565b6001600160401b0316611cea565b155b15610ddd5760008d8d85818110610b9457610b94612d0d565b9050602002810190610ba69190612d6d565b610bb79060408101906020016129df565b6001600160a01b03161415610d0f57610c0d8e8e8e86818110610bdc57610bdc612d0d565b9050602002810190610bee9190612d6d565b610bff906080810190606001612d8d565b6001600160401b0316611dae565b6000808e8e86818110610c2257610c22612d0d565b9050602002810190610c349190612d6d565b610c429060208101906129df565b6001600160a01b03168f8f87818110610c5d57610c5d612d0d565b9050602002810190610c6f9190612d6d565b610c80906060810190604001612b29565b6001600160801b031660405160006040518083038185875af1925050503d8060008114610cc9576040519150601f19603f3d011682016040523d82523d6000602084013e610cce565b606091505b509150915081610d085760405162461bcd60e51b8152602060048201526005602482015264435330303760d81b60448201526064016103e2565b5050610ddd565b610d258e8e8e86818110610bdc57610bdc612d0d565b610ddd8d8d85818110610d3a57610d3a612d0d565b9050602002810190610d4c9190612d6d565b610d5a9060208101906129df565b8e8e86818110610d6c57610d6c612d0d565b9050602002810190610d7e9190612d6d565b610d8f906060810190604001612b29565b6001600160801b03168f8f87818110610daa57610daa612d0d565b9050602002810190610dbc9190612d6d565b610dcd9060408101906020016129df565b6001600160a01b03169190611e8f565b50508080610dea90612d39565b91505061090d565b5060005b83811015610f5f576000858583818110610e1257610e12612d0d565b9050602002016020810190610e2791906129df565b6001600160a01b03161415610e7357818181518110610e4857610e48612d0d565b60200260200101514714610e6e5760405162461bcd60e51b81526004016103e290612df1565b610f4d565b818181518110610e8557610e85612d0d565b6020026020010151858583818110610e9f57610e9f612d0d565b9050602002016020810190610eb491906129df565b6001600160a01b03166370a08231306040518263ffffffff1660e01b8152600401610edf91906129fa565b60206040518083038186803b158015610ef757600080fd5b505afa158015610f0b573d6000803e3d6000fd5b505050506040513d601f19601f82011682018060405250810190610f2f9190612d54565b1115610f4d5760405162461bcd60e51b81526004016103e290612df1565b80610f5781612d39565b915050610df6565b5050610f6b6001600255565b50505050505050505050565b610f7f611ee1565b610f87611f41565b565b6000610f9482611ac4565b506001600160a01b03166000908152600160205260409020546001600160801b031690565b610fc1611ee1565b60405162461bcd60e51b815260206004820152602260248201527f4f776e61626c653a2063616e6e6f742072656e6f756e6365206f776e65727368604482015261069760f41b60648201526084016103e2565b600061101f82611ac4565b506001600160a01b0316600090815260016020526040902054600160801b90046001600160801b031690565b611053611ee1565b610f87611f8d565b606061106682611ac4565b6001600160a01b0382166000908152600160205260408120546001600160801b03166001600160401b0381111561109f5761109f6127fe565b6040519080825280602002602001820160405280156110c8578160200160208202803683370190505b506001600160a01b038085166000908152600160208181526040808420838552909201905281205492935091165b6001600160a01b03811660011461116b5780838360ff168151811061111d5761111d612d0d565b6001600160a01b03928316602091820292909201810191909152868216600090815260018083526040808320958516835294019091529190912054168161116381612e10565b9250506110f6565b50909392505050565b61117c611a7e565b336000818152600160205260409020546001600160801b0316156111e25760405162461bcd60e51b815260206004820181905260248201527f4f7267616e697a65723a204f726720616c7265616479206f6e626f617264656460448201526064016103e2565b826111ff5760405162461bcd60e51b81526004016103e290612e30565b6001600160801b0382168310156112285760405162461bcd60e51b81526004016103e290612e30565b6001600160801b03821661124e5760405162461bcd60e51b81526004016103e290612c24565b6001600160a01b0381166000908152600160208181526040928390206001600160801b038616600160801b0290558251600580825260c08201909452919290820160a0803683375050506001600160a01b038316600090815260016020908152604090912082516112c99360029092019291909101906126fb565b5060005b8481101561148c5760008686838181106112e9576112e9612d0d565b90506020020160208101906112fe91906129df565b90506001600160a01b0381161580159061132257506001600160a01b038116600114155b801561133757506001600160a01b0381163014155b80156113555750806001600160a01b0316836001600160a01b031614155b6113895760405162461bcd60e51b8152602060048201526005602482015264435330303160d81b60448201526064016103e2565b6001600160a01b0384811660009081526001602081815260408084208686168552909201905290205416156113d05760405162461bcd60e51b81526004016103e290612bc7565b6001600160a01b038481166000818152600160208181526040808420988616845297909101905285812080546001600160a01b03191693851693841790559451929485936000805160206130fb8339815191529190a36001600160a01b038416600090815260016020526040812080546001600160801b03169161145383612e4f565b91906101000a8154816001600160801b0302191690836001600160801b031602179055505050808061148490612d39565b9150506112cd565b506001600160a01b038083166000908152600160208181526040808420948616845293820190529082902080546001600160a01b0319169091179055516114d69086908690612e76565b6040518091039020826001600160a01b03167fcc78a51061ab3534a9c926383d2e9693d6e839e84b27cdcbfbe9784c2beb4a948787604051611519929190612eb6565b60405180910390a35050505050565b611530611a7e565b61153933611ac4565b6001600160a01b0382161580159061155b57506001600160a01b038216600114155b801561157057506001600160a01b0382163014155b61158c5760405162461bcd60e51b81526004016103e290612ba8565b3360009081526001602081815260408084206001600160a01b03878116865293019091529091205416156115d25760405162461bcd60e51b81526004016103e290612bc7565b336000818152600160208181526040808420838552808401835281852080546001600160a01b038a81168089529488208054919092166001600160a01b0319918216179091558154169092179091559383525281546001600160801b0316919061163b83612e4f565b91906101000a8154816001600160801b0302191690836001600160801b0316021790555050816001600160a01b0316336001600160a01b03166000805160206130fb83398151915260405160405180910390a3336000908152600160205260409020546001600160801b03828116600160801b90920416146116c0576116c0816118b3565b5050565b6116cc611a7e565b6116d533611ac4565b336000908152600160208190526040909120546001600160801b038084169261170092909116612ef7565b6001600160801b031610156117275760405162461bcd60e51b81526004016103e290612f1f565b6001600160a01b0382161580159061174957506001600160a01b038216600114155b6117655760405162461bcd60e51b81526004016103e290612ba8565b3360009081526001602081815260408084206001600160a01b0388811686529301909152909120548116908316146117af5760405162461bcd60e51b81526004016103e290612be6565b3360008181526001602081815260408084206001600160a01b038881168652818501845282862080548b831688529387208054949092166001600160a01b03199485161790915580549092169091559383525281546001600160801b0316919061181883612f3e565b82546001600160801b039182166101009390930a928302919092021990911617905550604080516001600160a01b03841681523360208201527f21108c84990d72cc717433752110f9dc2c776eabbd861cca48434c44ad42e9a9910160405180910390a1336000908152600160205260409020546001600160801b03828116600160801b90920416146118ae576118ae816118b3565b505050565b6118bb611a7e565b6118c433611ac4565b336000908152600160205260409020546001600160801b0390811690821611156119005760405162461bcd60e51b81526004016103e290612f1f565b6001816001600160801b031610156119425760405162461bcd60e51b8152602060048201526005602482015264435330313560d81b60448201526064016103e2565b3360008181526001602090815260409182902080546001600160801b03908116600160801b918716918202179091558251908152908101929092527fd6c6a426185f23acffb7dba7a1fb29112e6b695b6f79c7278cf7920af8028b2d910160405180910390a150565b604080516001600160a01b038087166020830152851691810191909152606081018390526001600160401b038216608082015260009060a0016040516020818303038152906040528051906020012090505b949350505050565b611a0d611ee1565b6001600160a01b038116611a725760405162461bcd60e51b815260206004820152602660248201527f4f776e61626c653a206e6577206f776e657220697320746865207a65726f206160448201526564647265737360d01b60648201526084016103e2565b611a7b81611fca565b50565b60035460ff1615610f875760405162461bcd60e51b815260206004820152601060248201526f14185d5cd8589b194e881c185d5cd95960821b60448201526064016103e2565b6001600160a01b0381166000908152600160205260409020546001600160801b0316611a7b5760405162461bcd60e51b81526004016103e290612c05565b600280541415611b545760405162461bcd60e51b815260206004820152601f60248201527f5265656e7472616e637947756172643a207265656e7472616e742063616c6c0060448201526064016103e2565b60028055565b6000805b8351811015611c4e576000611ba5858381518110611b7e57611b7e612d0d565b6020026020010151858481518110611b9857611b98612d0d565b6020026020010151612024565b90506001600160a01b038116600114801590611be957506001600160a01b038681166000908152600160208181526040808420868616855290920190529020541615155b8015611c065750826001600160a01b0316816001600160a01b0316115b611c3a5760405162461bcd60e51b815260206004820152600560248201526410d4cc0c4d60da1b60448201526064016103e2565b915080611c4681612d39565b915050611b5e565b5050505050565b6000805460408051602081018252838152905163228ab20d60e11b81526001600160a01b0390921692634515641a92611c9d9288928892309289929182918591600401612fbd565b600060405180830381600087803b158015611cb757600080fd5b505af1158015611ccb573d6000803e3d6000fd5b50505050505050565b600082611ce185846120fd565b14949350505050565b600080611cf96101008461303e565b90506000611d0961010085613052565b6001600160a01b0386166000908152600160205260409020600201549091501580611d4f57506001600160a01b0385166000908152600160205260409020600201548210155b15611d5f57600092505050611da8565b6001600160a01b0385166000908152600160208190526040909120600201805491831b9184908110611d9357611d93612d0d565b90600052602060002001541660001415925050505b92915050565b6000611dbc6101008361303e565b90506000611dcc61010084613052565b6001600160a01b0385166000908152600160205260409020600201549091508210611e43575b6001600160a01b0384166000908152600160205260409020600201548214611e43576001600160a01b0384166000908152600160208181526040832060020180549283018155835282200155611df2565b6001600160a01b0384166000908152600160208190526040909120600201805491831b9184908110611e7757611e77612d0d565b60009182526020909120018054909117905550505050565b604080516001600160a01b038416602482015260448082018490528251808303909101815260649091019091526020810180516001600160e01b031663a9059cbb60e01b1790526118ae90849061214a565b6003546001600160a01b03610100909104163314610f875760405162461bcd60e51b815260206004820181905260248201527f4f776e61626c653a2063616c6c6572206973206e6f7420746865206f776e657260448201526064016103e2565b611f4961221c565b6003805460ff191690557f5db9ee0a495bf2e6ff9c91a7834c1ba4fdd244a5e8aa4e537bd38aeae4b073aa335b604051611f8391906129fa565b60405180910390a1565b611f95611a7e565b6003805460ff191660011790557f62e78cea01bee320cd4e420270b5ea74000d11b0c9f74754ebdbfc544b05a258611f763390565b600380546001600160a01b03838116610100818102610100600160a81b031985161790945560405193909204169182907f8be0079c531659141344cd1fd0a4f28419497f9722a3daafe3b4186f6b6457e090600090a35050565b60008061202f612265565b604080518082018252601b81527f506179726f6c6c5478286279746573333220726f6f7448617368290000000000602091820152905161209c917f8fba187ae9ab8a9763f7172f9bfd506ee0dfef805deabfbabbb76e3a3c44804d91889101918252602082015260400190565b604051602081830303815290604052805190602001206040516020016120d992919061190160f01b81526002810192909252602282015260420190565b60408051601f19818403018152919052805160209091012090506119fd81846122c1565b600081815b84518110156121425761212e8286838151811061212157612121612d0d565b60200260200101516122dd565b91508061213a81612d39565b915050612102565b509392505050565b600061219f826040518060400160405280602081526020017f5361666545524332303a206c6f772d6c6576656c2063616c6c206661696c6564815250856001600160a01b031661230f9092919063ffffffff16565b8051909150156118ae57808060200190518101906121bd9190613066565b6118ae5760405162461bcd60e51b815260206004820152602a60248201527f5361666545524332303a204552433230206f7065726174696f6e20646964206e6044820152691bdd081cdd58d8d9595960b21b60648201526084016103e2565b60035460ff16610f875760405162461bcd60e51b815260206004820152601460248201527314185d5cd8589b194e881b9bdd081c185d5cd95960621b60448201526064016103e2565b60006040518060600160405280603781526020016130c4603791398051906020012061228e4690565b60408051602081019390935282015230606082015260800160405160208183030381529060405280519060200120905090565b60008060006122d0858561231e565b9150915061214281612364565b60008183106122f9576000828152602084905260409020612308565b60008381526020839052604090205b9392505050565b60606119fd84846000856124ad565b6000808251604114156123555760208301516040840151606085015160001a61234987828585612588565b9450945050505061235d565b506000905060025b9250929050565b600081600481111561237857612378613088565b14156123815750565b600181600481111561239557612395613088565b14156123de5760405162461bcd60e51b815260206004820152601860248201527745434453413a20696e76616c6964207369676e617475726560401b60448201526064016103e2565b60028160048111156123f2576123f2613088565b14156124405760405162461bcd60e51b815260206004820152601f60248201527f45434453413a20696e76616c6964207369676e6174757265206c656e6774680060448201526064016103e2565b600381600481111561245457612454613088565b1415611a7b5760405162461bcd60e51b815260206004820152602260248201527f45434453413a20696e76616c6964207369676e6174757265202773272076616c604482015261756560f01b60648201526084016103e2565b60608247101561250e5760405162461bcd60e51b815260206004820152602660248201527f416464726573733a20696e73756666696369656e742062616c616e636520666f6044820152651c8818d85b1b60d21b60648201526084016103e2565b600080866001600160a01b0316858760405161252a919061309e565b60006040518083038185875af1925050503d8060008114612567576040519150601f19603f3d011682016040523d82523d6000602084013e61256c565b606091505b509150915061257d87838387612642565b979650505050505050565b6000806fa2a8918ca85bafe22016d0b997e4df60600160ff1b038311156125b55750600090506003612639565b6040805160008082526020820180845289905260ff881692820192909252606081018690526080810185905260019060a0016020604051602081039080840390855afa158015612609573d6000803e3d6000fd5b5050604051601f1901519150506001600160a01b03811661263257600060019250925050612639565b9150600090505b94509492505050565b606083156126ae5782516126a7576001600160a01b0385163b6126a75760405162461bcd60e51b815260206004820152601d60248201527f416464726573733a2063616c6c20746f206e6f6e2d636f6e747261637400000060448201526064016103e2565b50816119fd565b6119fd83838151156126c35781518083602001fd5b8060405162461bcd60e51b81526004016103e291906130b0565b5080546000825590600052602060002090810190611a7b9190612746565b828054828255906000526020600020908101928215612736579160200282015b8281111561273657825182559160200191906001019061271b565b50612742929150612746565b5090565b5b808211156127425760008155600101612747565b80356001600160a01b038116811461277257600080fd5b919050565b60008060006060848603121561278c57600080fd5b6127958461275b565b92506127a36020850161275b565b91506127b16040850161275b565b90509250925092565b60008083601f8401126127cc57600080fd5b5081356001600160401b038111156127e357600080fd5b6020830191508360208260051b850101111561235d57600080fd5b634e487b7160e01b600052604160045260246000fd5b604051601f8201601f191681016001600160401b038111828210171561283c5761283c6127fe565b604052919050565b60006001600160401b0382111561285d5761285d6127fe565b5060051b60200190565b600082601f83011261287857600080fd5b8135602061288d61288883612844565b612814565b82815260059290921b840181019181810190868411156128ac57600080fd5b8286015b848110156128dd5780356001600160601b03811681146128d05760008081fd5b83529183019183016128b0565b509695505050505050565b60008060008060008060008060008060c08b8d03121561290757600080fd5b6129108b61275b565b995060208b01356001600160401b038082111561292c57600080fd5b6129388e838f016127ba565b909b50995060408d013591508082111561295157600080fd5b61295d8e838f016127ba565b909950975060608d013591508082111561297657600080fd5b6129828e838f016127ba565b909750955060808d013591508082111561299b57600080fd5b6129a78e838f016127ba565b909550935060a08d01359150808211156129c057600080fd5b506129cd8d828e01612867565b9150509295989b9194979a5092959850565b6000602082840312156129f157600080fd5b6123088261275b565b6001600160a01b0391909116815260200190565b6020808252825182820181905260009190848201906040850190845b81811015612a4f5783516001600160a01b031683529284019291840191600101612a2a565b50909695505050505050565b80356001600160801b038116811461277257600080fd5b600080600060408486031215612a8757600080fd5b83356001600160401b03811115612a9d57600080fd5b612aa9868287016127ba565b90945092506127b1905060208501612a5b565b60008060408385031215612acf57600080fd5b612ad88361275b565b9150612ae660208401612a5b565b90509250929050565b600080600060608486031215612b0457600080fd5b612b0d8461275b565b9250612b1b6020850161275b565b91506127b160408501612a5b565b600060208284031215612b3b57600080fd5b61230882612a5b565b80356001600160401b038116811461277257600080fd5b60008060008060808587031215612b7157600080fd5b612b7a8561275b565b9350612b886020860161275b565b925060408501359150612b9d60608601612b44565b905092959194509250565b602080825260059082015264435330303360d81b604082015260600190565b60208082526005908201526421a998181960d91b604082015260600190565b602080825260059082015264435330313760d81b604082015260600190565b602080825260059082015264435330303960d81b604082015260600190565b60208082526005908201526410d4cc0c0d60da1b604082015260600190565b6000612c5161288884612844565b80848252602080830192508560051b850136811115612c6f57600080fd5b855b81811015612d015780356001600160401b0380821115612c915760008081fd5b90880190601f3681840112612ca65760008081fd5b823582811115612cb857612cb86127fe565b612cc9818301601f19168801612814565b92508083523687828601011115612ce257600091508182fd5b8087850188850137600090830187015250865250938201938201612c71565b50919695505050505050565b634e487b7160e01b600052603260045260246000fd5b634e487b7160e01b600052601160045260246000fd5b6000600019821415612d4d57612d4d612d23565b5060010190565b600060208284031215612d6657600080fd5b5051919050565b60008235609e19833603018112612d8357600080fd5b9190910192915050565b600060208284031215612d9f57600080fd5b61230882612b44565b6000808335601e19843603018112612dbf57600080fd5b8301803591506001600160401b03821115612dd957600080fd5b6020019150600581901b360382131561235d57600080fd5b602080825260059082015264086a66062760db1b604082015260600190565b600060ff821660ff811415612e2757612e27612d23565b60010192915050565b602080825260059082015264043533030360dc1b604082015260600190565b60006001600160801b0382811680821415612e6c57612e6c612d23565b6001019392505050565b60008184825b85811015612eab576001600160a01b03612e958361275b565b1683526020928301929190910190600101612e7c565b509095945050505050565b60208082528181018390526000908460408401835b868110156128dd576001600160a01b03612ee48461275b565b1682529183019190830190600101612ecb565b60006001600160801b0383811690831681811015612f1757612f17612d23565b039392505050565b60208082526005908201526421a998189b60d91b604082015260600190565b60006001600160801b03821680612f5757612f57612d23565b6000190192915050565b60005b83811015612f7c578181015183820152602001612f64565b83811115612f8b576000848401525b50505050565b60008151808452612fa9816020860160208601612f61565b601f01601f19169290920160200192915050565b6001600160a01b038981168252888116602083015287811660408301526001600160601b0387811660608401528682166080840152851660a0830152831660c082015261010060e0820181905260009061301983820185612f91565b9b9a5050505050505050505050565b634e487b7160e01b600052601260045260246000fd5b60008261304d5761304d613028565b500490565b60008261306157613061613028565b500690565b60006020828403121561307857600080fd5b8151801515811461230857600080fd5b634e487b7160e01b600052602160045260246000fd5b60008251612d83818460208701612f61565b6020815260006123086020830184612f9156fe454950373132446f6d61696e2875696e7432353620636861696e49642c6164647265737320766572696679696e67436f6e7472616374296f7e40272ccf7bff793b08585f1c68cbcab6f8cb3b0800d269b975c79ffa3745a26469706673582212204ddd9f2ded5e2d6a1dc164fccbcf8e36a596423f56d12ffa4889900ddd7e925364736f6c63430008090033","abi":[{"inputs":[{"internalType":"address","name":"_allowanceAddress","type":"address"}],"stateMutability":"nonpayable","type":"constructor"},{"anonymous":false,"inputs":[{"indexed":true,"internalType":"address","name":"safeAddress","type":"address"},{"indexed":true,"internalType":"address","name":"operator","type":"address"}],"name":"ApproverAdded","type":"event"},{"anonymous":false,"inputs":[{"indexed":true,"internalType":"address","name":"safeAddress","type":"address"},{"indexed":true,"internalType":"address","name":"operator","type":"address"}],"name":"ApproverRemoved","type":"event"},{"anonymous":false,"inputs":[{"indexed":false,"internalType":"uint128","name":"threshold","type":"uint128"},{"indexed":false,"internalType":"address","name":"safeAddress","type":"address"}],"name":"ChangedThreshold","type":"event"},{"anonymous":false,"inputs":[{"indexed":true,"internalType":"address","name":"orgAddress","type":"address"}],"name":"OrgOffboarded","type":"event"},{"anonymous":false,"inputs":[{"indexed":true,"internalType":"address","name":"orgAddress","type":"address"},{"indexed":true,"internalType":"address[]","name":"approvers","type":"address[]"},{"indexed":false,"internalType":"address[]","name":"approvers2","type":"address[]"}],"name":"OrgOnboarded","type":"event"},{"anonymous":false,"inputs":[{"indexed":true,"internalType":"address","name":"previousOwner","type":"address"},{"indexed":true,"internalType":"address","name":"newOwner","type":"address"}],"name":"OwnershipTransferred","type":"event"},{"anonymous":false,"inputs":[{"indexed":false,"internalType":"address","name":"account","type":"address"}],"name":"Paused","type":"event"},{"anonymous":false,"inputs":[{"indexed":false,"internalType":"address","name":"approver","type":"address"},{"indexed":false,"internalType":"address","name":"safeAddress","type":"address"}],"name":"RemovedApprover","type":"event"},{"anonymous":false,"inputs":[{"indexed":false,"internalType":"address","name":"account","type":"address"}],"name":"Unpaused","type":"event"},{"inputs":[{"internalType":"address","name":"approver","type":"address"},{"internalType":"uint128","name":"threshold","type":"uint128"}],"name":"addApproverWithThreshold","outputs":[],"stateMutability":"nonpayable","type":"function"},{"inputs":[{"internalType":"uint128","name":"threshold","type":"uint128"}],"name":"changeThreshold","outputs":[],"stateMutability":"nonpayable","type":"function"},{"inputs":[{"internalType":"address","name":"to","type":"address"},{"internalType":"address","name":"tokenAddress","type":"address"},{"internalType":"uint256","name":"amount","type":"uint256"},{"internalType":"uint64","name":"payoutNonce","type":"uint64"}],"name":"encodeTransactionData","outputs":[{"internalType":"bytes32","name":"","type":"bytes32"}],"stateMutability":"pure","type":"function"},{"inputs":[{"internalType":"address","name":"safeAddress","type":"address"},{"components":[{"internalType":"address","name":"to","type":"address"},{"internalType":"address","name":"tokenAddress","type":"address"},{"internalType":"uint128","name":"amount","type":"uint128"},{"internalType":"uint64","name":"payoutNonce","type":"uint64"},{"internalType":"bytes32[][]","name":"proof","type":"bytes32[][]"}],"internalType":"struct Storage.Payout[]","name":"payouts","type":"tuple[]"},{"internalType":"bytes32[]","name":"roots","type":"bytes32[]"},{"internalType":"bytes[]","name":"signatures","type":"bytes[]"},{"internalType":"address[]","name":"paymentTokens","type":"address[]"},{"internalType":"uint96[]","name":"payoutAmounts","type":"uint96[]"}],"name":"executePayroll","outputs":[],"stateMutability":"nonpayable","type":"function"},{"inputs":[{"internalType":"address","name":"_safeAddress","type":"address"}],"name":"getApproverCount","outputs":[{"internalType":"uint256","name":"","type":"uint256"}],"stateMutability":"view","type":"function"},{"inputs":[{"internalType":"address","name":"_safeAddress","type":"address"}],"name":"getApprovers","outputs":[{"internalType":"address[]","name":"","type":"address[]"}],"stateMutability":"view","type":"function"},{"inputs":[{"internalType":"address","name":"_safeAddress","type":"address"}],"name":"getThreshold","outputs":[{"internalType":"uint256","name":"","type":"uint256"}],"stateMutability":"view","type":"function"},{"inputs":[],"name":"offboard","outputs":[],"stateMutability":"nonpayable","type":"function"},{"inputs":[{"internalType":"address[]","name":"_approvers","type":"address[]"},{"internalType":"uint128","name":"approvalsRequired","type":"uint128"}],"name":"onboard","outputs":[],"stateMutability":"nonpayable","type":"function"},{"inputs":[{"internalType":"address","name":"","type":"address"}],"name":"orgs","outputs":[{"internalType":"uint128","name":"approverCount","type":"uint128"},{"internalType":"uint128","name":"approvalsRequired","type":"uint128"}],"stateMutability":"view","type":"function"},{"inputs":[],"name":"owner","outputs":[{"internalType":"address","name":"","type":"address"}],"stateMutability":"view","type":"function"},{"inputs":[],"name":"pause","outputs":[],"stateMutability":"nonpayable","type":"function"},{"inputs":[],"name":"paused","outputs":[{"internalType":"bool","name":"","type":"bool"}],"stateMutability":"view","type":"function"},{"inputs":[{"internalType":"address","name":"prevApprover","type":"address"},{"internalType":"address","name":"approver","type":"address"},{"internalType":"uint128","name":"threshold","type":"uint128"}],"name":"removeApprover","outputs":[],"stateMutability":"nonpayable","type":"function"},{"inputs":[],"name":"renounceOwnership","outputs":[],"stateMutability":"view","type":"function"},{"inputs":[{"internalType":"address","name":"prevApprover","type":"address"},{"internalType":"address","name":"oldApprover","type":"address"},{"internalType":"address","name":"newApprover","type":"address"}],"name":"swapApprover","outputs":[],"stateMutability":"nonpayable","type":"function"},{"inputs":[{"internalType":"address","name":"newOwner","type":"address"}],"name":"transferOwnership","outputs":[],"stateMutability":"nonpayable","type":"function"},{"inputs":[],"name":"unpause","outputs":[],"stateMutability":"nonpayable","type":"function"},{"stateMutability":"payable","type":"receive"}]}