{"address":"0x0D5d9C5E44F98b3D4f78373b81C3A2ddA8CBF98D","bytecode":"0x60e060405260376080818152906200325060a039805160209091012046604080516020810193909352820152306060820152608001604051602081830303815290604052805190602001206000553480156200005a57600080fd5b5060405162003287380380620032878339810160408190526200007d9162000123565b6009805460ff19169055600180546001600160a01b039384166001600160a01b031991821617909155600280549290931691161790557fd3eedd6d69d410e954f4c622838ecc3acae9fdcd83cad412075c85b092770656600090815260066020527f92c0cd5d0d4f1126f4dc909af53875c49c1b71de9e8af67dd682f6f0990659cd556200015b565b80516001600160a01b03811681146200011e57600080fd5b919050565b600080604083850312156200013757600080fd5b620001428362000106565b9150620001526020840162000106565b90509250929050565b6130e5806200016b6000396000f3fe6080604052600436106100de5760003560e01c806364f9b9b91161008557806364f9b9b9146101f557806378977168146102155780638454e22c146102355780638d80ff0a146102555780639146a77514610268578063b9f96f4014610295578063e3f1b42e146102b5578063e686840f146102d5578063e7bc30621461032357600080fd5b806307cd9269146100e3578063090bcd5814610118578063113bc8871461013a5780631c701d4e1461015a57806321426a481461017d57806331aa06cb1461019d578063523e99ae146101bd5780635c975abb146101dd575b600080fd5b3480156100ef57600080fd5b506101036100fe3660046124da565b610345565b60405190151581526020015b60405180910390f35b34801561012457600080fd5b506101386101333660046125e7565b6103a8565b005b34801561014657600080fd5b50610103610155366004612711565b6105cc565b34801561016657600080fd5b5061016f600081565b60405190815260200161010f565b34801561018957600080fd5b5061013861019836600461278e565b610654565b3480156101a957600080fd5b506101386101b83660046127d9565b6108b2565b3480156101c957600080fd5b5061016f6101d83660046124da565b6114f0565b3480156101e957600080fd5b5060095460ff16610103565b34801561020157600080fd5b5061013861021036600461297b565b611535565b34801561022157600080fd5b5061016f6102303660046124da565b61176a565b34801561024157600080fd5b50610138610250366004612aac565b6117b2565b610138610263366004612b36565b611a8f565b34801561027457600080fd5b506102886102833660046124da565b611b08565b60405161010f9190612b72565b3480156102a157600080fd5b506101386102b03660046124da565b611c39565b3480156102c157600080fd5b5061016f6102d0366004612bbf565b611d52565b3480156102e157600080fd5b5061030b6102f03660046124da565b6007602052600090815260409020546001600160601b031681565b6040516001600160601b03909116815260200161010f565b34801561032f57600080fd5b5061016f60008051602061309083398151915281565b60006001600160a01b03821661038a5760405162461bcd60e51b8152602060048201526005602482015264435330303360d81b60448201526064015b60405180910390fd5b506001600160a01b0316600090815260036020526040902054151590565b826103b281610345565b6103ce5760405162461bcd60e51b815260040161038190612c10565b82518251146103ef5760405162461bcd60e51b815260040161038190612c2f565b60006103fd89898989611d52565b600554909150158061041e575061041c866001600160401b0316611da5565b155b156105c1576000805b8451816001600160601b031610156104f75761048886826001600160601b03168151811061045757610457612c4e565b602002602001015186836001600160601b03168151811061047a5761047a612c4e565b602002602001015185611e17565b80156104d257506004600086836001600160601b0316815181106104ae576104ae612c4e565b60209081029190910181015182528101919091526040016000205460ff1615156001145b156104e5576104e2600183612c7a565b91505b806104ef81612ca5565b915050610427565b506001600160a01b0386166000908152600360205260409020600201546001600160601b038216106105bf5760405163a9059cbb60e01b81526001600160a01b038b81166004830152602482018a90528a919082169063a9059cbb90604401602060405180830381600087803b15801561057057600080fd5b505af1158015610584573d6000803e3d6000fd5b505050506040513d601f19601f820116820180604052508101906105a89190612ccc565b506105bd6001896001600160401b0316611e2d565b505b505b505050505050505050565b60006001600160a01b0382166105f45760405162461bcd60e51b815260040161038190612cee565b6001600160a01b0382166001141561061e5760405162461bcd60e51b815260040161038190612cee565b61062783610345565b6106435760405162461bcd60e51b815260040161038190612c10565b61064d8383611ef3565b9392505050565b3333836106735760405162461bcd60e51b815260040161038190612d2c565b828410156106935760405162461bcd60e51b815260040161038190612d2c565b6001600160a01b03811660009081526003602052604081208181556002018490556001905b858110156108115760008787838181106106d4576106d4612c4e565b90506020020160208101906106e991906124da565b90506001600160a01b0381161580159061070d57506001600160a01b038116600114155b801561072257506001600160a01b0381163014155b80156107405750806001600160a01b0316836001600160a01b031614155b61075c5760405162461bcd60e51b815260040161038190612cee565b6001600160a01b038481166000908152600360209081526040808320858516845260010190915290205416156107a45760405162461bcd60e51b815260040161038190612d4b565b6001600160a01b0384811660008181526003602081815260408084209886168452600189018252832080546001600160a01b031916958716959095179094559181529152835491938492916107f883612d6a565b919050555050808061080990612d6a565b9150506106b8565b506001600160a01b038083166000908152600360209081526040808320938516835260019384019091529081902080546001600160a01b0319169092179091555161085f9087908790612d85565b6040518091039020826001600160a01b03167fcc78a51061ab3534a9c926383d2e9693d6e839e84b27cdcbfbe9784c2beb4a9488886040516108a2929190612dc7565b60405180910390a3505050505050565b806108bc81610345565b6108d85760405162461bcd60e51b815260040161038190612c10565b6000836001600160401b038111156108f2576108f2612513565b60405190808252806020026020018201604052801561091b578160200160208202803683370190505b50905060005b60ff81168511156111ad5785858260ff1681811061094157610941612c4e565b90506020028101906109539190612e0a565b610961906080810190612e2a565b905086868360ff1681811061097857610978612c4e565b905060200281019061098a9190612e0a565b6109989060a0810190612e2a565b9050148015610a12575085858260ff168181106109b7576109b7612c4e565b90506020028101906109c99190612e0a565b6109d79060c0810190612e2a565b905086868360ff168181106109ee576109ee612c4e565b9050602002810190610a009190612e0a565b610a0e906080810190612e2a565b9050145b610a2e5760405162461bcd60e51b815260040161038190612c2f565b60055415801590610a835750610a8386868360ff16818110610a5257610a52612c4e565b9050602002810190610a649190612e0a565b610a75906080810190606001612e73565b6001600160401b0316611da5565b15610ab85760405162461bcd60e51b8152602060048201526005602482015264435330313760d81b6044820152606401610381565b600080610ba488888560ff16818110610ad357610ad3612c4e565b9050602002810190610ae59190612e0a565b610af39060208101906124da565b89898660ff16818110610b0857610b08612c4e565b9050602002810190610b1a9190612e0a565b610b2b9060408101906020016124da565b8a8a8760ff16818110610b4057610b40612c4e565b9050602002810190610b529190612e0a565b610b63906060810190604001612e8e565b6001600160601b03168b8b8860ff16818110610b8157610b81612c4e565b9050602002810190610b939190612e0a565b6102d0906080810190606001612e73565b905060005b88888560ff16818110610bbe57610bbe612c4e565b9050602002810190610bd09190612e0a565b610bde906080810190612e2a565b90508160ff16101561114a5760006006818b8b60ff8916818110610c0457610c04612c4e565b9050602002810190610c169190612e0a565b610c24906080810190612e2a565b8560ff16818110610c3757610c37612c4e565b905060200201358152602001908152602001600020541415610e70576000610d3b8a8a8760ff16818110610c6d57610c6d612c4e565b9050602002810190610c7f9190612e0a565b610c8d906080810190612e2a565b8460ff16818110610ca057610ca0612c4e565b905060200201358b8b8860ff16818110610cbc57610cbc612c4e565b9050602002810190610cce9190612e0a565b610cdc9060c0810190612e2a565b8560ff16818110610cef57610cef612c4e565b9050602002810190610d019190612ea9565b8080601f016020809104026020016040519081016040528093929190818152602001838380828437600092019190915250611f2392505050565b9050610d478882611ef3565b15610e565760008051602061309083398151915260009081526006602081905260008051602061307083398151915254918c8c60ff8a16818110610d8d57610d8d612c4e565b9050602002810190610d9f9190612e0a565b610dad906080810190612e2a565b8660ff16818110610dc057610dc0612c4e565b9050602002013581526020019081526020016000208190555089898660ff16818110610dee57610dee612c4e565b9050602002810190610e009190612e0a565b610e0e906080810190612e2a565b8360ff16818110610e2157610e21612c4e565b600080516020613090833981519152600052600660209081520291909101356000805160206130708339815191525550610e6e565b60405162461bcd60e51b815260040161038190612eef565b505b610f5589898660ff16818110610e8857610e88612c4e565b9050602002810190610e9a9190612e0a565b610ea89060a0810190612e2a565b8360ff16818110610ebb57610ebb612c4e565b9050602002810190610ecd9190612e2a565b808060200260200160405190810160405280939291908181526020018383602002808284376000920191909152508d92508c91505060ff8816818110610f1557610f15612c4e565b9050602002810190610f279190612e0a565b610f35906080810190612e2a565b8460ff16818110610f4857610f48612c4e565b9050602002013584611e17565b1561110857610f65600184612f0e565b9250600760008a8a8760ff16818110610f8057610f80612c4e565b9050602002810190610f929190612e0a565b610fa39060408101906020016124da565b6001600160a01b031681526020810191909152604001600020546001600160601b031661103757600889898660ff16818110610fe157610fe1612c4e565b9050602002810190610ff39190612e0a565b6110049060408101906020016124da565b81546001810183556000928352602090922090910180546001600160a01b0319166001600160a01b039092169190911790555b88888560ff1681811061104c5761104c612c4e565b905060200281019061105e9190612e0a565b61106f906060810190604001612e8e565b600760008b8b8860ff1681811061108857611088612c4e565b905060200281019061109a9190612e0a565b6110ab9060408101906020016124da565b6001600160a01b031681526020810191909152604001600090812080549091906110df9084906001600160601b0316612c7a565b92506101000a8154816001600160601b0302191690836001600160601b03160217905550611138565b60405162461bcd60e51b815260206004820152600560248201526421a998189b60d91b6044820152606401610381565b8061114281612f33565b915050610ba9565b506001600160a01b03861660009081526003602052604090206002015460ff831610611198576001848460ff168151811061118757611187612c4e565b911515602092830291909101909101525b505080806111a590612f33565b915050610921565b5060005b60085460ff821610156112b4576112518460088360ff16815481106111d8576111d8612c4e565b9060005260206000200160009054906101000a90046001600160a01b03166007600060088660ff168154811061121057611210612c4e565b60009182526020808320909101546001600160a01b03168352828101939093526040918201812054825193840190925282526001600160601b031690611ff5565b6007600060088360ff168154811061126b5761126b612c4e565b60009182526020808320909101546001600160a01b03168352820192909252604001902080546bffffffffffffffffffffffff19169055806112ac81612f33565b9150506111b1565b5060005b60ff811685111561148457818160ff16815181106112d8576112d8612c4e565b60200260200101511561147257600086868360ff168181106112fc576112fc612c4e565b905060200281019061130e9190612e0a565b61131f9060408101906020016124da565b9050806001600160a01b031663a9059cbb88888560ff1681811061134557611345612c4e565b90506020028101906113579190612e0a565b6113659060208101906124da565b89898660ff1681811061137a5761137a612c4e565b905060200281019061138c9190612e0a565b61139d906060810190604001612e8e565b6040516001600160e01b031960e085901b1681526001600160a01b0390921660048301526001600160601b03166024820152604401602060405180830381600087803b1580156113ec57600080fd5b505af1158015611400573d6000803e3d6000fd5b505050506040513d601f19601f820116820180604052508101906114249190612ccc565b50611470600188888560ff1681811061143f5761143f612c4e565b90506020028101906114519190612e0a565b611462906080810190606001612e73565b6001600160401b0316611e2d565b505b8061147c81612f33565b9150506112b8565b5061149160086000612493565b5b600080516020613090833981519152600052600660205260008051602061307083398151915254156114e9576006602052600080516020613070833981519152805460009081526040812080549092559055611492565b5050505050565b6000816114fc81610345565b6115185760405162461bcd60e51b815260040161038190612c10565b50506001600160a01b031660009081526003602052604090205490565b8461153f81610345565b61155b5760405162461bcd60e51b815260040161038190612c10565b835185511461157c5760405162461bcd60e51b815260040161038190612c2f565b815183511461159d5760405162461bcd60e51b815260040161038190612c2f565b6000805b8651816001600160601b031610156116d2576004600088836001600160601b0316815181106115d2576115d2612c4e565b60209081029190910181015182528101919091526040016000205460ff166116c057600061164488836001600160601b03168151811061161457611614612c4e565b602002602001015188846001600160601b03168151811061163757611637612c4e565b6020026020010151611f23565b90506116508982611ef3565b61166c5760405162461bcd60e51b815260040161038190612eef565b6001600460008a856001600160601b03168151811061168d5761168d612c4e565b6020026020010151815260200190815260200160002060006101000a81548160ff02191690831515021790555060019250505b806116ca81612ca5565b9150506115a1565b5080156117615760005b8451816001600160601b0316101561175f5761174d8886836001600160601b03168151811061170d5761170d612c4e565b602002602001015186846001600160601b03168151811061173057611730612c4e565b602002602001015160405180602001604052806000815250611ff5565b8061175781612ca5565b9150506116dc565b505b50505050505050565b60008161177681610345565b6117925760405162461bcd60e51b815260040161038190612c10565b50506001600160a01b031660009081526003602052604090206002015490565b856117bc81610345565b6117d85760405162461bcd60e51b815260040161038190612c10565b86336001600160a01b038216146118015760405162461bcd60e51b815260040161038190612d0d565b826118365760405162461bcd60e51b8152602060048201526005602482015264435330313560d81b6044820152606401610381565b60005b8681101561194257600088888381811061185557611855612c4e565b905060200201602081019061186a91906124da565b90506001600160a01b0381161580159061188e57506001600160a01b038116600114155b80156118a357506001600160a01b0381163014155b80156118c15750896001600160a01b0316816001600160a01b031614155b6118dd5760405162461bcd60e51b815260040161038190612cee565b6001600160a01b038a81166000908152600360209081526040808320858516845260010190915290205416156119255760405162461bcd60e51b815260040161038190612d4b565b61192f8a82612066565b508061193a81612d6a565b915050611839565b5060005b84811015611a6657600086868381811061196257611962612c4e565b905060200201602081019061197791906124da565b90506001600160a01b0381161580159061199b57506001600160a01b038116600114155b80156119b057506001600160a01b0381163014155b80156119ce5750896001600160a01b0316816001600160a01b031614155b6119ea5760405162461bcd60e51b815260040161038190612cee565b6001600160a01b038a81166000908152600360209081526040808320858516845260010190915290205416611a495760405162461bcd60e51b8152602060048201526005602482015264435330313360d81b6044820152606401610381565b611a538a826120d6565b5080611a5e81612d6a565b915050611946565b5050506001600160a01b0390951660009081526003602052604090206002019490945550505050565b805160205b81811015611b03578083015160f81c6001820184015160601c601583018501516035840186015160558501870160008560008114611ad957600181146100de57611ae5565b6000808585888a5af191505b5080611af057600080fd5b5050806055018501945050505050611a94565b505050565b606081611b1481610345565b611b305760405162461bcd60e51b815260040161038190612c10565b6001600160a01b0383166000908152600360205260408120546001600160401b03811115611b6057611b60612513565b604051908082528060200260200182016040528015611b89578160200160208202803683370190505b506001600160a01b03808616600090815260036020908152604080832060018085520190915281205492935091165b6001600160a01b038116600114611c2f5780838360ff1681518110611bdf57611bdf612c4e565b6001600160a01b0392831660209182029290920181019190915287821660009081526003825260408082209484168252600190940190915291909120541681611c2781612f33565b925050611bb8565b5090949350505050565b80611c4381610345565b611c5f5760405162461bcd60e51b815260040161038190612c10565b81336001600160a01b03821614611c885760405162461bcd60e51b815260040161038190612d0d565b6001600160a01b038084166000908152600360209081526040808320600180855201909152902054165b6001600160a01b038116600114611d05576001600160a01b0384811660009081526003602090815260408083209484168352600190940190529190912080546001600160a01b0319811690915516611cb2565b6001600160a01b038416600081815260036020526040808220828155600201829055517ffad79252f2a35a653f254aabf7b02e141c2ba535f23ae9e18add88e96d1159729190a250505050565b604080516001600160a01b03958616602080830191909152949095168582015260608501929092526001600160401b03166080808501919091528151808503909101815260a09093019052815191012090565b600080611db461010084612f69565b90506000611dc461010085612f7d565b6005549091501580611dd7575060055482115b15611de6575060009392505050565b806001901b60058381548110611dfe57611dfe612c4e565b9060005260206000200154166000141592505050919050565b600082611e2485846121af565b14949350505050565b6000611e3b61010083612f69565b90506000611e4b61010084612f7d565b6005549091508210611e8c5760058054600181810183556000929092527f036b6384b5eca791c62761152d0c79bb0604c104a5fb6f4eb0703f3154bb3db001555b8315611ec157806001901b60058381548110611eaa57611eaa612c4e565b600091825260209091200180549091179055611eed565b806001901b1960058381548110611eda57611eda612c4e565b6000918252602090912001805490911690555b50505050565b6001600160a01b039182166000908152600360209081526040808320938516835260019093019052205416151590565b60408051602080820183528482526000805484518086018652601b81527f506179726f6c6c5478286279746573333220726f6f744861736829000000000090840152835185517f8fba187ae9ab8a9763f7172f9bfd506ee0dfef805deabfbabbb76e3a3c44804d818601528087019190915285518082038701815260608201875280519085012061190160f01b6080830152608282019290925260a2808201929092528551808203909201825260c2019094528351939091019290922082611feb82866121fc565b9695505050505050565b60015460405163228ab20d60e11b81526001600160a01b039091169030908290634515641a90612038908990899086908a90600090819084908d90600401612f91565b600060405180830381600087803b15801561205257600080fd5b505af11580156105bf573d6000803e3d6000fd5b6001600160a01b03828116600081815260036020818152604080842060018086528101835281852080548989168088529387208054919099166001600160a01b0319918216179098558054909716909117909555928252909152815491906120cd83612d6a565b91905055505050565b60015b6001600160a01b0383811660009081526003602090815260408083208585168452600101909152902054811690831614612140576001600160a01b0380841660009081526003602090815260408083209484168352600190940190529190912054166120d9565b6001600160a01b0383811660008181526003602081815260408084208887168552600181018352818520805489891687529286208054939098166001600160a01b0319938416179097558654909116909555928252909152815491906121a583613042565b9190505550505050565b600081815b84518110156121f4576121e0828683815181106121d3576121d3612c4e565b6020026020010151612218565b9150806121ec81612d6a565b9150506121b4565b509392505050565b600080600061220b8585612247565b915091506121f48161228d565b600081831061223457600082815260208490526040902061064d565b600083815260208390526040902061064d565b60008082516041141561227e5760208301516040840151606085015160001a612272878285856123d9565b94509450505050612286565b506000905060025b9250929050565b60008160048111156122a1576122a1613059565b14156122aa5750565b60018160048111156122be576122be613059565b14156123075760405162461bcd60e51b815260206004820152601860248201527745434453413a20696e76616c6964207369676e617475726560401b6044820152606401610381565b600281600481111561231b5761231b613059565b14156123695760405162461bcd60e51b815260206004820152601f60248201527f45434453413a20696e76616c6964207369676e6174757265206c656e677468006044820152606401610381565b600381600481111561237d5761237d613059565b14156123d65760405162461bcd60e51b815260206004820152602260248201527f45434453413a20696e76616c6964207369676e6174757265202773272076616c604482015261756560f01b6064820152608401610381565b50565b6000806fa2a8918ca85bafe22016d0b997e4df60600160ff1b03831115612406575060009050600361248a565b6040805160008082526020820180845289905260ff881692820192909252606081018690526080810185905260019060a0016020604051602081039080840390855afa15801561245a573d6000803e3d6000fd5b5050604051601f1901519150506001600160a01b0381166124835760006001925092505061248a565b9150600090505b94509492505050565b50805460008255906000526020600020908101906123d691905b808211156124c157600081556001016124ad565b5090565b6001600160a01b03811681146123d657600080fd5b6000602082840312156124ec57600080fd5b813561064d816124c5565b80356001600160401b038116811461250e57600080fd5b919050565b634e487b7160e01b600052604160045260246000fd5b604051601f8201601f191681016001600160401b038111828210171561255157612551612513565b604052919050565b60006001600160401b0382111561257257612572612513565b5060051b60200190565b600082601f83011261258d57600080fd5b813560206125a261259d83612559565b612529565b82815260059290921b840181019181810190868411156125c157600080fd5b8286015b848110156125dc57803583529183019183016125c5565b509695505050505050565b600080600080600080600060e0888a03121561260257600080fd5b61260c88356124c5565b87359650602088013561261e816124c5565b955060408801359450612633606089016124f7565b93506080880135612643816124c5565b925060a08801356001600160401b038082111561265f57600080fd5b818a0191508a601f83011261267357600080fd5b813561268161259d82612559565b8082825260208201915060208360051b86010192508d8311156126a357600080fd5b602085015b838110156126dc5784813511156126be57600080fd5b6126ce8f6020833589010161257c565b8352602092830192016126a8565b509550505060c08a01359150808211156126f557600080fd5b506127028a828b0161257c565b91505092959891949750929550565b6000806040838503121561272457600080fd5b823561272f816124c5565b9150602083013561273f816124c5565b809150509250929050565b60008083601f84011261275c57600080fd5b5081356001600160401b0381111561277357600080fd5b6020830191508360208260051b850101111561228657600080fd5b6000806000604084860312156127a357600080fd5b83356001600160401b038111156127b957600080fd5b6127c58682870161274a565b909790965060209590950135949350505050565b6000806000604084860312156127ee57600080fd5b83356001600160401b0381111561280457600080fd5b6128108682870161274a565b9094509250506020840135612824816124c5565b809150509250925092565b600082601f83011261284057600080fd5b81356001600160401b0381111561285957612859612513565b61286c601f8201601f1916602001612529565b81815284602083860101111561288157600080fd5b816020850160208301376000918101602001919091529392505050565b600082601f8301126128af57600080fd5b813560206128bf61259d83612559565b82815260059290921b840181019181810190868411156128de57600080fd5b8286015b848110156125dc5780356128f5816124c5565b83529183019183016128e2565b80356001600160601b038116811461250e57600080fd5b600082601f83011261292a57600080fd5b8135602061293a61259d83612559565b82815260059290921b8401810191818101908684111561295957600080fd5b8286015b848110156125dc5761296e81612902565b835291830191830161295d565b600080600080600060a0868803121561299357600080fd5b853561299e816124c5565b94506020868101356001600160401b03808211156129bb57600080fd5b6129c78a838b0161257c565b965060408901359150808211156129dd57600080fd5b818901915089601f8301126129f157600080fd5b81356129ff61259d82612559565b81815260059190911b8301840190848101908c831115612a1e57600080fd5b8585015b83811015612a5657803585811115612a3a5760008081fd5b612a488f89838a010161282f565b845250918601918601612a22565b50975050506060890135925080831115612a6f57600080fd5b612a7b8a848b0161289e565b94506080890135925080831115612a9157600080fd5b5050612a9f88828901612919565b9150509295509295909350565b60008060008060008060808789031215612ac557600080fd5b8635612ad0816124c5565b955060208701356001600160401b0380821115612aec57600080fd5b612af88a838b0161274a565b90975095506040890135915080821115612b1157600080fd5b50612b1e89828a0161274a565b979a9699509497949695606090950135949350505050565b600060208284031215612b4857600080fd5b81356001600160401b03811115612b5e57600080fd5b612b6a8482850161282f565b949350505050565b6020808252825182820181905260009190848201906040850190845b81811015612bb35783516001600160a01b031683529284019291840191600101612b8e565b50909695505050505050565b60008060008060808587031215612bd557600080fd5b8435612be0816124c5565b93506020850135612bf0816124c5565b925060408501359150612c05606086016124f7565b905092959194509250565b602080825260059082015264435330303960d81b604082015260600190565b60208082526005908201526410d4cc0c0d60da1b604082015260600190565b634e487b7160e01b600052603260045260246000fd5b634e487b7160e01b600052601160045260246000fd5b60006001600160601b03808316818516808303821115612c9c57612c9c612c64565b01949350505050565b60006001600160601b0380831681811415612cc257612cc2612c64565b6001019392505050565b600060208284031215612cde57600080fd5b8151801515811461064d57600080fd5b602080825260059082015264435330303160d81b604082015260600190565b602080825260059082015264043533031360dc1b604082015260600190565b602080825260059082015264043533030360dc1b604082015260600190565b60208082526005908201526421a998181960d91b604082015260600190565b6000600019821415612d7e57612d7e612c64565b5060010190565b60008184825b85811015612dbc578135612d9e816124c5565b6001600160a01b031683526020928301929190910190600101612d8b565b509095945050505050565b60208082528181018390526000908460408401835b868110156125dc578235612def816124c5565b6001600160a01b031682529183019190830190600101612ddc565b6000823560de19833603018112612e2057600080fd5b9190910192915050565b6000808335601e19843603018112612e4157600080fd5b8301803591506001600160401b03821115612e5b57600080fd5b6020019150600581901b360382131561228657600080fd5b600060208284031215612e8557600080fd5b61064d826124f7565b600060208284031215612ea057600080fd5b61064d82612902565b6000808335601e19843603018112612ec057600080fd5b8301803591506001600160401b03821115612eda57600080fd5b60200191503681900382131561228657600080fd5b60208082526005908201526410d4cc0c4d60da1b604082015260600190565b600060ff821660ff84168060ff03821115612f2b57612f2b612c64565b019392505050565b600060ff821660ff811415612f4a57612f4a612c64565b60010192915050565b634e487b7160e01b600052601260045260246000fd5b600082612f7857612f78612f53565b500490565b600082612f8c57612f8c612f53565b500690565b6001600160a01b03898116825288811660208084019190915288821660408401526001600160601b0388811660608501528783166080850152861660a084015290841660c083015261010060e0830181905283519083018190526000918291905b8183101561301157858301810151858401610120015291820191612ff2565b508082111561302557600061012082860101525b601f01601f191692909201610120019a9950505050505050505050565b60008161305157613051612c64565b506000190190565b634e487b7160e01b600052602160045260246000fdfe92c0cd5d0d4f1126f4dc909af53875c49c1b71de9e8af67dd682f6f0990659cdd3eedd6d69d410e954f4c622838ecc3acae9fdcd83cad412075c85b092770656a2646970667358221220a94825ca6f46ead35778811912be01c8032ebd6d2257d4912853ed48e16da48264736f6c63430008090033454950373132446f6d61696e2875696e7432353620636861696e49642c6164647265737320766572696679696e67436f6e747261637429","abi":[{"inputs":[{"internalType":"address","name":"_allowanceAddress","type":"address"},{"internalType":"address","name":"_masterOperator","type":"address"}],"stateMutability":"nonpayable","type":"constructor"},{"anonymous":false,"inputs":[{"indexed":true,"internalType":"address","name":"safeAddress","type":"address"},{"indexed":true,"internalType":"address","name":"operator","type":"address"}],"name":"ApproverAdded","type":"event"},{"anonymous":false,"inputs":[{"indexed":true,"internalType":"address","name":"safeAddress","type":"address"},{"indexed":true,"internalType":"address","name":"operator","type":"address"}],"name":"ApproverRemoved","type":"event"},{"anonymous":false,"inputs":[{"indexed":true,"internalType":"address","name":"orgAddress","type":"address"}],"name":"OrgOffboarded","type":"event"},{"anonymous":false,"inputs":[{"indexed":true,"internalType":"address","name":"orgAddress","type":"address"},{"indexed":true,"internalType":"address[]","name":"approvers","type":"address[]"},{"indexed":false,"internalType":"address[]","name":"approvers2","type":"address[]"}],"name":"OrgOnboarded","type":"event"},{"anonymous":false,"inputs":[{"indexed":false,"internalType":"address","name":"account","type":"address"}],"name":"Paused","type":"event"},{"anonymous":false,"inputs":[{"indexed":false,"internalType":"address","name":"account","type":"address"}],"name":"Unpaused","type":"event"},{"inputs":[],"name":"NULL_BYTES","outputs":[{"internalType":"bytes32","name":"","type":"bytes32"}],"stateMutability":"view","type":"function"},{"inputs":[],"name":"SENTINEL_BYTES","outputs":[{"internalType":"bytes32","name":"","type":"bytes32"}],"stateMutability":"view","type":"function"},{"inputs":[{"internalType":"address","name":"to","type":"address"},{"internalType":"address","name":"tokenAddress","type":"address"},{"internalType":"uint256","name":"amount","type":"uint256"},{"internalType":"uint64","name":"payoutNonce","type":"uint64"}],"name":"encodeTransactionData","outputs":[{"internalType":"bytes32","name":"","type":"bytes32"}],"stateMutability":"pure","type":"function"},{"inputs":[{"internalType":"address payable","name":"to","type":"address"},{"internalType":"address","name":"tokenAddress","type":"address"},{"internalType":"uint256","name":"amount","type":"uint256"},{"internalType":"uint64","name":"payoutNonce","type":"uint64"},{"internalType":"address","name":"safeAddress","type":"address"},{"internalType":"bytes32[][]","name":"proof","type":"bytes32[][]"},{"internalType":"bytes32[]","name":"roots","type":"bytes32[]"}],"name":"executePayout","outputs":[],"stateMutability":"nonpayable","type":"function"},{"inputs":[{"components":[{"internalType":"address payable","name":"recipient","type":"address"},{"internalType":"address","name":"tokenAddress","type":"address"},{"internalType":"uint96","name":"amount","type":"uint96"},{"internalType":"uint64","name":"payoutNonce","type":"uint64"},{"internalType":"bytes32[]","name":"merkleRoots","type":"bytes32[]"},{"internalType":"bytes32[][]","name":"merkleProofs","type":"bytes32[][]"},{"internalType":"bytes[]","name":"rootSignatures","type":"bytes[]"}],"internalType":"struct Storage.Payout[]","name":"payouts","type":"tuple[]"},{"internalType":"address","name":"safeAddress","type":"address"}],"name":"executePayouts","outputs":[],"stateMutability":"nonpayable","type":"function"},{"inputs":[{"internalType":"address","name":"_safeAddress","type":"address"}],"name":"getApproverCount","outputs":[{"internalType":"uint256","name":"","type":"uint256"}],"stateMutability":"view","type":"function"},{"inputs":[{"internalType":"address","name":"_safeAddress","type":"address"}],"name":"getApprovers","outputs":[{"internalType":"address[]","name":"","type":"address[]"}],"stateMutability":"view","type":"function"},{"inputs":[{"internalType":"address","name":"_safeAddress","type":"address"}],"name":"getThreshold","outputs":[{"internalType":"uint256","name":"","type":"uint256"}],"stateMutability":"view","type":"function"},{"inputs":[{"internalType":"address","name":"_safeAddress","type":"address"},{"internalType":"address","name":"_addressToCheck","type":"address"}],"name":"isApprover","outputs":[{"internalType":"bool","name":"","type":"bool"}],"stateMutability":"view","type":"function"},{"inputs":[{"internalType":"address","name":"_addressToCheck","type":"address"}],"name":"isOrgOnboarded","outputs":[{"internalType":"bool","name":"","type":"bool"}],"stateMutability":"view","type":"function"},{"inputs":[{"internalType":"address","name":"_safeAddress","type":"address"},{"internalType":"address[]","name":"_addressesToAdd","type":"address[]"},{"internalType":"address[]","name":"_addressesToRemove","type":"address[]"},{"internalType":"uint256","name":"newThreshold","type":"uint256"}],"name":"modifyApprovers","outputs":[],"stateMutability":"nonpayable","type":"function"},{"inputs":[{"internalType":"bytes","name":"transactions","type":"bytes"}],"name":"multiSend","outputs":[],"stateMutability":"payable","type":"function"},{"inputs":[{"internalType":"address","name":"_safeAddress","type":"address"}],"name":"offboard","outputs":[],"stateMutability":"nonpayable","type":"function"},{"inputs":[{"internalType":"address[]","name":"_approvers","type":"address[]"},{"internalType":"uint256","name":"approvalsRequired","type":"uint256"}],"name":"onboard","outputs":[],"stateMutability":"nonpayable","type":"function"},{"inputs":[],"name":"paused","outputs":[{"internalType":"bool","name":"","type":"bool"}],"stateMutability":"view","type":"function"},{"inputs":[{"internalType":"address","name":"","type":"address"}],"name":"tokensToFetch","outputs":[{"internalType":"uint96","name":"","type":"uint96"}],"stateMutability":"view","type":"function"},{"inputs":[{"internalType":"address","name":"safeAddress","type":"address"},{"internalType":"bytes32[]","name":"roots","type":"bytes32[]"},{"internalType":"bytes[]","name":"signatures","type":"bytes[]"},{"internalType":"address[]","name":"paymentTokens","type":"address[]"},{"internalType":"uint96[]","name":"payoutAmounts","type":"uint96[]"}],"name":"validatePayouts","outputs":[],"stateMutability":"nonpayable","type":"function"}]}